:020000040800F2
:100000000030002081300008E52F0008F32F0008A1
:10001000F92F0008FF2F000805300008000000003D
:100020000000000000000000000000000B3000088D
:1000300019300008000000002730000835300008A3
:10004000D1300008D1300008D1300008D13000088C
:10005000D1300008D1300008D1300008D13000087C
:10006000D1300008D1300008D1300008D13000086C
:10007000D1300008D1300008D1300008D13000085C
:10008000D1300008D1300008D1300008D13000084C
:10009000D1300008D1300008D1300008D13000083C
:1000A000D1300008D1300008D1300008D13000082C
:1000B000D1300008D130000800000000D130000825
:1000C000D13000080000000000000000D13000081E
:1000D00000000000D1300008D13000084130000895
:1000E000D1300008D13000080000000000000000FE
:1000F0000000000000000000000000000000000000
:1001000000000000000000000000000000000000EF
:100110000000000000000000D1300008D1300008CD
:1001200000000000000000000000000000000000CF
:1001300000000000000000000000000000000000BF
:10014000D1300008D130000800000000D130000894
:10015000D1300008D1300008D1300008D13000087B
:10016000D1300008D130000800000000000000007D
:10017000000000000000000000000000000000007F
:0801800000000000D13000086E
:1001880010B5054C237833B9044B13B10448AFF3C9
:1001980000800123237010BD0C0000200000000027
:1001A8002C31000808B5034B1BB103490348AFF3D2
:1001B800008008BD00000000100000202C3100085D
:1001C80080B500AF084A084B1B6843F01003136062
:1001D800032000F04BF9002000F008F802F06EFE52
:1001E8000023184680BD00BF0020024080B582B0C1
:1001F80000AF7860124B1A68124B1B7819464FF4FF
:100208007A73B3FBF1F3B2FBF3F3184600F063F92A
:100218000346002B01D001230EE07B680F2B0AD880
:10022800002279684FF0FF3000F02BF9064A7B680E
:100238001360002300E0012318460837BD4680BD3F
:1002480008000020040000200000002080B400AF57
:10025800064B1B781A46064B1B681344044A136066
:1002680000BFBD465DF8047B704700BF0400002056
:100278002C00002080B400AF034B1B681846BD4615
:100288005DF8047B704700BF2C00002080B584B067
:1002980000AF7860FFF7EEFFB8607B68FB60FB6833
:1002A800B3F1FF3F05D0094B1B781A46FB6813448E
:1002B800FB6000BFFFF7DEFF0246BB68D21AFB688F
:1002C8009A42F7D300BF1037BD4680BD0400002016
:1002D80080B485B000AF78607B6803F00703FB60EB
:1002E8000C4BDB68BB60BA684FF6FF031340BB607A
:1002F800FB681A02BB68134343F0BF6343F400333F
:10030800BB60044ABB68D36000BF1437BD465DF8C4
:10031800047B704700ED00E080B400AF044BDB685D
:100328001B0A03F007031846BD465DF8047B7047B7
:1003380000ED00E080B483B000AF0346FB7197F98D
:100348000730002B0BDB094997F907305B09FA796D
:1003580002F01F02012000FA02F241F8232000BF38
:100368000C37BD465DF8047B704700BF00E100E034
:1003780080B483B000AF03463960FB7197F907304A
:10038800002B0ADB0D4997F907303A68D2B21201FF
:10039800D2B20B4483F800230AE00949FB7903F041
:1003A8000F03043B3A68D2B21201D2B20B441A7658
:1003B80000BF0C37BD465DF8047B704700E100E0E4
:1003C80000ED00E080B489B000AFF860B9607A60F1
:1003D800FB6803F00703FB61FB69C3F10703042B08
:1003E80028BF0423BB61FB690433062B02D9FB69D0
:1003F800033B00E000237B610122BB6902FA03F39F
:100408005A1EBB681A407B699A4001217B6901FA30
:1004180003F3591E7B680B40134318462437BD4627
:100428005DF8047B7047000080B582B000AF78604B
:100438007B68013BB3F1807F01D301230FE00A4AB7
:100448007B68013B53600F214FF0FF30FFF790FFAF
:10045800054B00229A60044B07221A6000231846B5
:100468000837BD4680BD00BF10E000E080B582B00F
:1004780000AF78607868FFF72BFF00BF0837BD46EC
:1004880080BD80B586B000AF0346B9607A60FB7363
:1004980000237B61FFF740FF78617A68B968786963
:1004A800FFF790FF024697F90F3011461846FFF7FD
:1004B8005FFF00BF1837BD4680BD80B582B000AF72
:1004C8000346FB7197F907301846FFF733FF00BF63
:1004D8000837BD4680BD80B582B000AF78607868C7
:1004E800FFF7A2FF034618460837BD4680BD80B512
:1004F80084B000AF78600023FB737B6893F82130E9
:10050800022B05D07B6804229A630123FB7327E042
:100518007B681B687A681268126822F00E021A60FB
:100528007B681B687A681268126822F001021A60F8
:100538007B68DB6B7A68126C012101FA02F25A605F
:100548007B68012283F821207B68002283F8202021
:100558007B685B6B002B03D07B685B6B7868984784
:10056800FB7B18461037BD4680BD000080B487B0BD
:1005780000AF7860396000237B614EE13B681A6800
:1005880001217B6901FA03F31340FB60FB68002B30
:1005980000F040813B685B68012B0BD03B685B68CF
:1005A800022B07D03B685B68112B03D03B685B6864
:1005B800122B30D17B689B683B617B695B0003220F
:1005C80002FA03F3DB433A6913403B613B68DA689C
:1005D8007B695B0002FA03F33A6913433B617B686A
:1005E8003A699A607B685B683B6101227B6902FA21
:1005F80003F3DB433A6913403B613B685B681B09C3
:1006080003F001027B6902FA03F33A6913433B6181
:100618007B683A695A607B68DB683B617B695B0091
:10062800032202FA03F3DB433A6913403B613B6858
:100638009A687B695B0002FA03F33A6913433B61EA
:100648007B683A69DA603B685B68022B03D03B68D9
:100658005B68122B23D17B69DA087B68083253F870
:1006680022303B617B6903F007039B000F2202FAEB
:1006780003F3DB433A6913403B613B681A697B69C2
:1006880003F007039B0002FA03F33A6913433B6143
:100698007B69DA087B680832396943F822107B687D
:1006A8001B683B617B695B00032202FA03F3DB43AF
:1006B8003A6913403B613B685B6803F003027B695E
:1006C8005B0002FA03F33A6913433B617B683A69BA
:1006D8001A603B685B6803F08053002B00F09A8037
:1006E800554A554B9B6943F001039361524B9B69F3
:1006F80003F00103BB60BB68504A7B699B08023367
:1007080052F823303B617B6903F003039B000F22FF
:1007180002FA03F3DB433A6913403B617B68B3F1A8
:10072800904F13D07B68464A93420DD07B68454A68
:10073800934207D07B68444A934201D1032306E0E1
:10074800052304E0022302E0012300E000237A6984
:1007580002F00302920093403A6913433B61374920
:100768007B699B0802333A6941F82320374B1B68A1
:100778003B61FB68DB433A6913403B613B685B685C
:1007880003F48033002B03D03A69FB6813433B61C1
:100798002E4A3B6913602D4B5B683B61FB68DB436A
:1007A8003A6913403B613B685B6803F40033002BF4
:1007B80003D03A69FB6813433B61244A3B695360A1
:1007C800224B9B683B61FB68DB433A6913403B6102
:1007D8003B685B6803F48013002B03D03A69FB681D
:1007E80013433B61194A3B699360184BDB683B61D3
:1007F800FB68DB433A6913403B613B685B6803F481
:100808000013002B03D03A69FB6813433B610F4A7E
:100818003B69D3607B6901337B613B681A687B69FC
:1008280022FA03F3002B7FF4A9AE00BF1C37BD46A4
:100838005DF8047B704700BF0010024000000140D3
:100848000004004800080048000C0048000401406B
:1008580080B485B000AF78600B467B807B681A69EE
:100868007B881340002B02D00123FB7301E0002397
:10087800FB73FB7B18461437BD465DF8047B704755
:1008880080B483B000AF78600B467B8013467B70E2
:100898007B78002B03D07A887B689A6102E07A889B
:1008A8007B689A6200BF0C37BD465DF8047B7047D1
:1008B80080B5ADF5007D00AF3B1D18603B1D1B6882
:1008C800002B02D1012300F0F4BE3B1D1B681B68FE
:1008D80003F00103002B00F06A81B34B5B6803F05F
:1008E8000C03042B0CD0B04B5B6803F00C03082BF3
:1008F80059D1AD4B5B6803F48033B3F5803F52D1D7
:100908004FF40033C7F8F031D7F8F03193FAA3F376
:10091800C7F8EC31D7F8EC31B3FA83F3DBB25B09F3
:10092800DBB243F00103DBB2012B02D19E4B1B6803
:1009380015E04FF40033C7F8E831D7F8E83193FAF7
:10094800A3F3C7F8E4314FF40033C7F8E031D7F820
:10095800E03193FAA3F3C7F8DC31934B5B6A4FF4A9
:100968000032C7F8D821D7F8D82192FAA2F2C7F8EE
:10097800D421D7F8D421B2FA82F2D2B242F02002BE
:10098800D2B202F01F02012101FA02F21340002B39
:1009980000F00C813B1D1B685B68002B40F0068152
:1009A800012300F086BE3B1D1B685B68B3F5803FE2
:1009B80006D17D4A7C4B1B6843F48033136030E0DA
:1009C8003B1D1B685B68002B0CD1774A764B1B6874
:1009D80023F480331360744A734B1B6823F4802319
:1009E80013601EE03B1D1B685B68B3F5A02F0CD19C
:1009F8006D4A6D4B1B6843F4802313606A4A6A4B47
:100A08001B6843F4803313600BE0674A664B1B682E
:100A180023F480331360644A634B1B6823F48023F8
:100A280013606149604BDB6A23F00F023B1D1B68B2
:100A38009B681343CB623B1D1B685B68002B59D036
:100A4800FFF718FCC7F8F8010AE0FFF713FC0246A5
:100A5800D7F8F831D31A642B02D9032300F029BE42
:100A68004FF40033C7F8D031D7F8D03193FAA3F355
:100A7800C7F8CC31D7F8CC31B3FA83F3DBB25B09D2
:100A8800DBB243F00103DBB2012B02D1464B1B68FA
:100A980015E04FF40033C7F8C831D7F8C83193FAD6
:100AA800A3F3C7F8C4314FF40033C7F8C031D7F8FF
:100AB800C03193FAA3F3C7F8BC313B4B5B6A4FF4E0
:100AC8000032C7F8B821D7F8B82192FAA2F2C7F8CD
:100AD800B421D7F8B421B2FA82F2D2B242F020029D
:100AE800D2B202F01F02012101FA02F21340002BD8
:100AF800ABD05CE0FFF7BEFBC7F8F8010AE0FFF7F0
:100B0800B9FB0246D7F8F831D31A642B02D903236C
:100B180000F0CFBD4FF40033C7F8B031D7F8B0318B
:100B280093FAA3F3C7F8AC31D7F8AC31B3FA83F32F
:100B3800DBB25B09DBB243F00103DBB2012B02D16C
:100B4800194B1B6815E04FF40033C7F8A831D7F8E4
:100B5800A83193FAA3F3C7F8A4314FF40033C7F8C8
:100B6800A031D7F8A03193FAA3F3C7F89C310E4B04
:100B78005B6A4FF40032C7F89821D7F8982192FAA7
:100B8800A2F2C7F89421D7F89421B2FA82F2D2B22D
:100B980042F02002D2B202F01F02012101FA02F251
:100BA8001340002BABD102E00010024000BF3B1DF8
:100BB8001B681B6803F00203002B00F06F81D04B09
:100BC8005B6803F00C03002B0BD0CD4B5B6803F084
:100BD8000C03082B6CD1CA4B5B6803F48033002BE1
:100BE80066D10223C7F89031D7F8903193FAA3F36E
:100BF800C7F88C31D7F88C31B3FA83F3DBB25B09D1
:100C0800DBB243F00103DBB2012B02D1BC4B1B6802
:100C180013E00223C7F88831D7F8883193FAA3F391
:100C2800C7F884310223C7F88031D7F8803193FAA6
:100C3800A3F3C7F87C31B24B5B6A0222C7F878216C
:100C4800D7F8782192FAA2F2C7F87421D7F874215C
:100C5800B2FA82F2D2B242F02002D2B202F01F02FD
:100C6800012101FA02F21340002B07D03B1D1B683B
:100C78001B69012B02D0012300F01BBDA048A04B2B
:100C88001B6823F0F8023B1D1B685B69F821C7F855
:100C98007011D7F8701191FAA1F1C7F86C11D7F853
:100CA8006C11B1FA81F1C9B28B4013430360F5E0CE
:100CB8003B1D1B681B69002B00F085800123C7F8CA
:100CC8006831D7F8683193FAA3F3C7F86431D7F8D5
:100CD8006431B3FA83F3DBB203F1845303F584136D
:100CE8009B001A4601231360FFF7C4FAC7F8F801FE
:100CF8000AE0FFF7BFFA0246D7F8F831D31A022BF9
:100D080002D9032300F0D5BC0223C7F86031D7F815
:100D1800603193FAA3F3C7F85C31D7F85C31B3FAC2
:100D280083F3DBB25B09DBB243F00103DBB2012BD7
:100D380002D1734B1B6813E00223C7F85831D7F868
:100D4800583193FAA3F3C7F854310223C7F8503146
:100D5800D7F8503193FAA3F3C7F84C31684B5B6A64
:100D68000222C7F84821D7F8482192FAA2F2C7F818
:100D78004421D7F84421B2FA82F2D2B242F02002DA
:100D8800D2B202F01F02012101FA02F21340002B35
:100D9800AFD05B485A4B1B6823F0F8023B1D1B6819
:100DA8005B69F821C7F84011D7F8401191FAA1F111
:100DB800C7F83C11D7F83C11B1FA81F1C9B28B40A0
:100DC800134303606AE00123C7F83831D7F8383194
:100DD80093FAA3F3C7F83431D7F83431B3FA83F36D
:100DE800DBB203F1845303F584139B001A460023F6
:100DF8001360FFF73FFAC7F8F8010AE0FFF73AFA7D
:100E08000246D7F8F831D31A022B02D9032300F08F
:100E180050BC0223C7F83031D7F8303193FAA3F326
:100E2800C7F82C31D7F82C31B3FA83F3DBB25B095E
:100E3800DBB243F00103DBB2012B02D1304B1B685C
:100E480013E00223C7F82831D7F8283193FAA3F31F
:100E5800C7F824310223C7F82031D7F8203193FA94
:100E6800A3F3C7F81C31264B5B6A0222C7F8182186
:100E7800D7F8182192FAA2F2C7F81421D7F814214A
:100E8800B2FA82F2D2B242F02002D2B202F01F02CB
:100E9800012101FA02F21340002BAFD13B1D1B6860
:100EA8001B6803F00803002B00F0DA803B1D1B6869
:100EB8009B69002B69D00123C7F81031D7F810318E
:100EC80093FAA3F3C7F80C31D7F80C31B3FA83F3CC
:100ED800DBB21A460B4B13449B001A4601231360DE
:100EE800FFF7C8F9C7F8F8010EE0FFF7C3F90246A3
:100EF800D7F8F831D31A022B06D90323D9E300BF58
:100F080000100240208190100223C7F80831D7F85A
:100F1800083193FAA3F3C7F8043107F58073022266
:100F28001A6007F580731B6893FAA3F207F1FC03B4
:100F38001A6007F1F80302221A6007F1F8031B6828
:100F480093FAA3F207F1F4031A60A54B5A6A07F162
:100F5800F0030221196007F1F0031B6893FAA3F16B
:100F680007F1EC03196007F1EC031B68B3FA83F38C
:100F7800DBB243F06003DBB203F01F03012101FA87
:100F880003F31340002BB0D06AE007F1E803012215
:100F98001A6007F1E8031B6893FAA3F207F1E40368
:100FA8001A6007F1E4031B68B3FA83F3DBB21A464D
:100FB8008C4B13449B001A4600231360FFF75AF921
:100FC800C7F8F80109E0FFF755F90246D7F8F831F4
:100FD800D31A022B01D903236BE307F1E0030222A2
:100FE8001A6007F1E0031B6893FAA3F207F1DC0328
:100FF8001A6007F1D80302221A6007F1D8031B68A8
:1010080093FAA3F207F1D4031A6007F1D00302227E
:101018001A6007F1D0031B6893FAA3F207F1CC0317
:101028001A606F4B5A6A07F1C8030221196007F169
:10103800C8031B6893FAA3F107F1C403196007F109
:10104800C4031B68B3FA83F3DBB243F06003DBB27B
:1010580003F01F03012101FA03F31340002BB2D15F
:101068003B1D1B681B6803F00403002B00F058812C
:10107800002387F8FF315A4BDB6903F08053002BBC
:1010880012D1574A564BDB6943F08053D361544B16
:10109800DB6903F0805207F108031A6007F10803BF
:1010A8001B68012387F8FF314F4B1B6803F48073DB
:1010B800002B1AD14C4A4C4B1B6843F480731360C5
:1010C800FFF7D8F8C7F8F80109E0FFF7D3F80246A8
:1010D800D7F8F831D31A642B01D90323E9E2424B3C
:1010E8001B6803F48073002BEFD03B1D1B68DB6883
:1010F800012B06D13A4A3A4B1B6A43F001031362AB
:101108002FE03B1D1B68DB68002B0CD1344A344BA5
:101118001B6A23F001031362314A314B1B6A23F027
:10112800040313621DE03B1D1B68DB68052B0CD113
:101138002B4A2B4B1B6A43F004031362284A284BA3
:101148001B6A43F0010313620BE0254A244B1B6A18
:1011580023F001031362224A214B1B6A23F0040384
:1011680013623B1D1B68DB68002B6BD0FFF782F80E
:10117800C7F8F8010BE0FFF77DF80246D7F8F83119
:10118800D31A41F28832934201D9032391E207F13D
:10119800C00302221A6007F1C0031B6893FAA3F286
:1011A80007F1BC031A6007F1B80302221A6007F1BD
:1011B800B8031B6893FAA3F207F1B4031A6007F1A6
:1011C800B4031B68B3FA83F3DBB25B09DBB243F009
:1011D8000203DBB2022B09D1014B1B6A14E000BFEA
:1011E80000100240208190100070004007F1B00309
:1011F80002221A6007F1B0031B6893FAA3F207F101
:10120800AC031A60BB4B5B6A07F1A80202211160AC
:1012180007F1A802126892FAA2F107F1A40211607C
:1012280007F1A4021268B2FA82F2D2B242F0400286
:10123800D2B202F01F02012101FA02F21340002B80
:1012480099D063E0FFF716F8C7F8F8010BE0FFF74D
:1012580011F80246D7F8F831D31A41F2883293428E
:1012680001D9032325E207F1A00302221A6007F13E
:10127800A0031B6893FAA3F207F19C031A6007F115
:10128800980302221A6007F198031B6893FAA3F2E5
:1012980007F194031A6007F194031B68B3FA83F308
:1012A800DBB25B09DBB243F00203DBB2022B02D1F3
:1012B800904B1B6A0DE007F1900302221A6007F1B8
:1012C80090031B6893FAA3F207F18C031A60894B09
:1012D8005B6A07F188020221116007F1880212682F
:1012E80092FAA2F107F18402116007F184021268F0
:1012F800B2FA82F2D2B242F04002D2B202F01F0237
:10130800012101FA02F21340002BA0D197F8FF3116
:10131800012B05D1774A774BDB6923F08053D361E2
:101328003B1D1B68DB69002B00F0C281714B5B68B9
:1013380003F00C03082B00F09C813B1D1B68DB6944
:10134800022B40F0148107F180034FF080721A607D
:1013580007F180031B6893FAA3F207F17C031A6074
:1013680007F17C031B68B3FA83F3DBB203F1845300
:1013780003F584139B001A4600231360FEF77AFFD7
:10138800C7F8F80109E0FEF775FF0246D7F8F8310B
:10139800D31A022B01D903238BE107F178034FF00D
:1013A80000721A6007F178031B6893FAA3F207F139
:1013B80074031A6007F174031B68B3FA83F3DBB292
:1013C8005B09DBB243F00103DBB2012B02D1494BCD
:1013D8001B681BE007F170034FF000721A6007F1F9
:1013E80070031B6893FAA3F207F16C031A6007F104
:1013F80068034FF000721A6007F168031B6893FADC
:10140800A3F207F164031A603A4B5B6A07F16002C2
:101418004FF00071116007F16002126892FAA2F1B0
:1014280007F15C02116007F15C021268B2FA82F2FD
:10143800D2B242F02002D2B202F01F02012101FA18
:1014480002F21340002B9ED12A482A4B5B6823F4F2
:1014580074123B1D1B68596A3B1D1B681B6A0B43B2
:101468001343436007F158034FF080721A6007F185
:1014780058031B6893FAA3F207F154031A6007F1A3
:1014880054031B68B3FA83F3DBB203F1845303F507
:1014980084139B001A4601231360FEF7EBFEC7F87E
:1014A800F80109E0FEF7E6FE0246D7F8F831D31A4C
:1014B800022B01D90323FCE007F150034FF000721F
:1014C8001A6007F150031B6893FAA3F207F14C0363
:1014D8001A6007F14C031B68B3FA83F3DBB25B09AC
:1014E800DBB243F00103DBB2012B05D1014B1B68D2
:1014F8001EE000BF0010024007F148034FF00072E1
:101508001A6007F148031B6893FAA3F207F1440332
:101518001A6007F140034FF000721A6007F14003A8
:101528001B6893FAA3F207F13C031A60634B5B6AEA
:1015380007F138024FF00071116007F138021268A4
:1015480092FAA2F107F13402116007F1340212682D
:10155800B2FA82F2D2B242F02002D2B202F01F02F4
:10156800012101FA02F21340002B9BD0A0E007F101
:1015780030034FF080721A6007F130031B6893FA4A
:10158800A3F207F12C031A6007F12C031B68B3FAC6
:1015980083F3DBB203F1845303F584139B001A46EB
:1015A80000231360FEF766FEC7F8F80109E0FEF7AE
:1015B80061FE0246D7F8F831D31A022B01D903236A
:1015C80077E007F128034FF000721A6007F128034B
:1015D8001B6893FAA3F207F124031A6007F12403A6
:1015E8001B68B3FA83F3DBB25B09DBB243F0010398
:1015F800DBB2012B02D1314B1B681BE007F1200342
:101608004FF000721A6007F120031B6893FAA3F2E7
:1016180007F11C031A6007F118034FF000721A60F3
:1016280007F118031B6893FAA3F207F114031A6071
:10163800224B5B6A07F110024FF00071116007F14D
:101648001002126892FAA2F107F10C02116007F178
:101658000C021268B2FA82F2D2B242F02002D2B27E
:1016680002F01F02012101FA02F21340002B9ED161
:101678001EE03B1D1B68DB69012B01D1012318E02B
:101688000E4B5B68C7F8F431D7F8F43103F48032B5
:101698003B1D1B681B6A9A4208D1D7F8F43103F442
:1016A80070123B1D1B685B6A9A4201D0012300E05F
:1016B8000023184607F50077BD4680BD001002409C
:1016C80080B59EB000AF7860396000237B677B6887
:1016D800002B01D1012362E1904B1B6803F0070244
:1016E8003B689A4210D28D498C4B1B6823F0070245
:1016F8003B6813430B60894B1B6803F007023B6888
:101708009A4201D001234AE17B681B6803F0020377
:10171800002B08D08249824B5B6823F0F0027B687B
:101728009B6813434B607B681B6803F00103002B25
:1017380000F0DC807B685B68012B3CD14FF4003300
:101748003B673B6F93FAA3F3FB66FB6EB3FA83F335
:10175800DBB25B09DBB243F00103DBB2012B02D140
:101768006F4B1B680FE04FF40033BB66BB6E93FAF8
:10177800A3F37B664FF400333B663B6E93FAA3F307
:10178800FB65674B5B6A4FF40032BA65BA6D92FA33
:10179800A2F27A657A6DB2FA82F2D2B242F02002EF
:1017A800D2B202F01F02012101FA02F21340002B0B
:1017B8007BD10123F3E07B685B68022B3CD14FF0BF
:1017C80000733B653B6D93FAA3F3FB64FB6CB3FAC0
:1017D80083F3DBB25B09DBB243F00103DBB2012B1D
:1017E80002D14F4B1B680FE04FF00073BB64BB6C1A
:1017F80093FAA3F37B644FF000733B643B6C93FA5A
:10180800A3F3FB63464B5B6A4FF00072BA63BA6B93
:1018180092FAA2F27A637A6BB2FA82F2D2B242F008
:101828002002D2B202F01F02012101FA02F2134093
:10183800002B3AD10123B2E002233B633B6B93FABE
:10184800A3F3FB62FB6AB3FA83F3DBB25B09DBB297
:1018580043F00103DBB2012B02D1314B1B680DE0D1
:101868000223BB62BB6A93FAA3F37B6202233B6247
:101878003B6A93FAA3F3FB61294B5B6A0222BA61C4
:10188800BA6992FAA2F27A617A69B2FA82F2D2B2AB
:1018980042F02002D2B202F01F02012101FA02F244
:1018A8001340002B01D1012379E01D491C4B5B68D3
:1018B80023F003027B685B6813434B60FEF7DAFC96
:1018C80078670AE0FEF7D6FC02467B6FD31A41F22E
:1018D8008832934201D9032361E0114B5B6803F01E
:1018E8000C027B685B689B009A42EBD10B4B1B6830
:1018F80003F007023B689A4214D90849074B1B6852
:1019080023F007023B6813430B60044B1B6803F08A
:1019180007023B689A4205D0012340E000200240BC
:10192800001002407B681B6803F00403002B08D0FA
:101938001D491D4B5B6823F4E0627B68DB68134339
:101948004B607B681B6803F00803002B09D016491D
:10195800154B5B6823F460527B681B69DB001343FB
:101968004B6000F029F801460F4B5B6803F0F00369
:10197800F0223A613A6992FAA2F2FA60FA68B2FA87
:1019880082F2D2B2D340094AD35C21FA03F3084A5F
:101998001360084B1B681846FEF728FC00231846FE
:1019A8007837BD4680BD00BF001002406431000892
:1019B800080000200000002080B48BB000AF002396
:1019C800FB610023BB6100237B6200237B61002352
:1019D8003B62294B5B68FB61FB6903F00C03042B3A
:1019E80002D0082B03D03CE0244B3B623CE0FB696F
:1019F80003F470134FF47012BA60BA6892FAA2F244
:101A08007A607A68B2FA82F2D2B2D3401C4AD35CC6
:101A18007B61194BDB6A03F00F030F223A613A69C5
:101A280092FAA2F2FA60FA68B2FA82F2D2B2D3401B
:101A3800144AD35CBB61FB6903F48033002B08D0E4
:101A48000E4ABB69B2FBF3F37A6902FB03F37B62CC
:101A580004E07B690C4A02FB03F37B627B6A3B620E
:101A680002E0064B3B6200BF3B6A18462C37BD4676
:101A78005DF8047B704700BF0010024000127A0036
:101A8800443100085431000800093D0080B400AF1B
:101A9800034B1B681846BD465DF8047B704700BFC2
:101AA8000800002080B582B000AFFFF7EFFF0146C5
:101AB8000B4B5B6803F4E0634FF4E0627A607A688A
:101AC80092FAA2F23A603A68B2FA82F2D2B2D340FB
:101AD800044AD35C21FA03F318460837BD4680BD93
:101AE800001002407431000880B582B000AFFFF7E3
:101AF800CDFF01460B4B5B6803F460534FF4605213
:101B08007A607A6892FAA2F23A603A68B2FA82F295
:101B1800D2B2D340044AD35C21FA03F318460837FB
:101B2800BD4680BD001002407431000880B582B007
:101B380000AF78607B68002B01D101231DE07B6832
:101B480093F83D30DBB2002B06D17B68002283F886
:101B58003C20786801F0D6F97B68022283F83D20A2
:101B68007B681A687B6804331946104600F00AF847
:101B78007B68012283F83D20002318460837BD46BC
:101B880080BD000080B485B000AF786039607B68A4
:101B98001B68FB607B68324A934207D07B68B3F1CD
:101BA800804F03D07B682F4A934208D1FB6823F00B
:101BB8007003FB603B685B68FA681343FB607B68F3
:101BC800274A934213D07B68B3F1804F0FD07B68CC
:101BD800244A93420BD07B68234A934207D07B6800
:101BE800224A934203D07B68214A934208D1FB687A
:101BF80023F44073FB603B68DB68FA681343FB60BF
:101C0800FB6823F080023B685B691343FB607B68D9
:101C1800FA681A603B689A687B68DA623B681A68F7
:101C28007B689A627B680E4A93420BD07B680E4AA7
:101C3800934207D07B680D4A934203D07B680C4AD5
:101C4800934203D13B681A697B681A637B68012257
:101C58005A6100BF1437BD465DF8047B704700BF6A
:101C6800002C0140000400400040014000440140B5
:101C78000048014080B485B000AF786039607B6867
:101C880093F83C30012B01D1022354E07B680122F8
:101C980083F83C207B68022283F83D207B681B6820
:101CA8005B68FB607B681B689B68BB607B681B6824
:101CB800244A934208D1FB6823F47003FB603B6815
:101CC8005B68FA681343FB60FB6823F07003FB60F2
:101CD8003B681B68FA681343FB607B681B68FA68FB
:101CE8005A607B681B68174A93420ED07B681B6852
:101CF800B3F1804F09D07B681B68134A934204D024
:101D08007B681B68114A93420CD1BB6823F080039F
:101D1800BB603B689B68BA681343BB607B681B6801
:101D2800BA689A607B68012283F83D207B680022AC
:101D380083F83C20002318461437BD465DF8047B21
:101D4800704700BF002C01400004004000400140E3
:101D580080B588B000AF78607B681B68DB69FB6181
:101D68007B681B681B68BB617B681B689B687B6121
:101D7800FA6940F60F0313403B613B69002B13D10E
:101D8800FB6903F02003002B0ED0BB6903F020038E
:101D9800002B09D07B681B6E002B00F014817B6838
:101DA8001B6E786898470EE13B69002B00F0D680DF
:101DB8007B6903F00103002B05D1BB6903F4907321
:101DC800002B00F0CB80FB6903F00103002B0ED041
:101DD800BB6903F48073002B09D07B681B68012260
:101DE8001A627B68DB6F43F001027B68DA67FB6984
:101DF80003F00203002B0ED07B6903F00103002BD4
:101E080009D07B681B6802221A627B68DB6F43F08B
:101E180004027B68DA67FB6903F00403002B0ED029
:101E28007B6903F00103002B09D07B681B6804223F
:101E38001A627B68DB6F43F002027B68DA67FB6932
:101E480003F00803002B13D0BB6903F02003002B19
:101E580004D17B6903F00103002B09D07B681B6860
:101E680008221A627B68DB6F43F008027B68DA6736
:101E7800FB6903F40063002B0FD0BB6903F0806398
:101E8800002B0AD07B681B684FF400621A627B68DB
:101E9800DB6F43F020027B68DA677B68DB6F002B1F
:101EA80000F09380FB6903F02003002B0CD0BB6982
:101EB80003F02003002B07D07B681B6E002B03D098
:101EC8007B681B6E786898477B68DB6FFB607B6874
:101ED8001B689B6803F04003402B04D0FB6803F0A9
:101EE8002803002B31D0786800F070FB7B681B68F2
:101EF8009B6803F04003402B23D17B681B687A68FA
:101F08001268926822F040029A607B68DB6E002BB0
:101F180013D07B68DB6E304A5A637B68DB6E1846E9
:101F2800FEF7E5FA0346002B16D07B68DB6E5B6B89
:101F38007A68D26E104698470EE0786800F058F834
:101F48000AE0786800F054F806E0786800F050F885
:101F58007B680022DA6738E000BF36E0FB6903F4EB
:101F68008013002B0DD07B6903F48003002B08D06D
:101F78007B681B684FF480121A62786800F0DCFBFB
:101F880026E0FB6903F08003002B0DD0BB6903F04A
:101F98008003002B08D07B685B6E002B17D07B6812
:101FA8005B6E7868984712E0FB6903F04003002BEA
:101FB8000ED0BB6903F04003002B09D0786800F00D
:101FC8003BFB00BF04E000BF02E000BF00E000BF31
:101FD8002037BD4680BD00BF1526000880B483B0F9
:101FE80000AF786000BF0C37BD465DF8047B7047D2
:101FF80080B483B000AF786000BF0C37BD465DF891
:10200800047B704780B588B000AF78600023BB615F
:102018000023FB757B689A687B681B691A437B6899
:102028005B691A437B68DB6913433B617B681A6809
:102038007B681B681968A84B0B4039690B43136010
:102048007B681B687A681268526822F440517A6883
:10205800D2680A435A607B689B693B617B681B6A4C
:102068003A6913433B617B681B687A681268926817
:1020780022F430613A690A439A607B681B68974A80
:10208800934221D1964B1B6B03F00303032B17D804
:1020980001A252F823F000BFB1200008BD200008BB
:1020A800C3200008B72000080023FB771EE00223A6
:1020B800FB771BE00423FB7718E00823FB7715E088
:1020C8001023FB7700BF11E07B681B68854A9342A9
:1020D80002D10023FB7709E07B681B68824A9342A0
:1020E80002D10023FB7701E01023FB777B68DB69D3
:1020F800B3F5004F40F08280FB7F082B5ED801A229
:1021080052F823F0312100085121000871210008FC
:10211800C52100088D210008C5210008C521000837
:10212800C5210008AD210008FFF7BCFCF860FB687A
:102138005A007B685B685B081A447B685B68B2FB83
:10214800F3F39BB2BB613CE0FFF7CEFCF860FB68A1
:102158005A007B685B685B081A447B685B68B2FB63
:10216800F3F39BB2BB612CE07B685B685B0803F50B
:10217800740303F510537A685268B3FBF2F39BB209
:10218800BB611EE0FFF718FCF860FB685A007B682B
:102198005B685B081A447B685B68B2FBF3F39BB22D
:1021A800BB610EE07B685B685B0803F580327B6887
:1021B8005B68B2FBF3F39BB2BB6102E00123FB75E2
:1021C80000BFBB690F2B16D9BB69B3F5803F12D28C
:1021D800BB699BB223F00F037B81BB695B089BB291
:1021E80003F007039AB27B8913437B817B681B68E2
:1021F8007A89DA607CE00123FB7579E0FB7F082BA4
:102208005BD801A252F823F03522000853220008B7
:1022180071220008C32200088D220008C32200088A
:10222800C3220008C3220008AB220008FFF73AFCCB
:10223800F8607B685B685A08FB681A447B685B68CF
:10224800B2FBF3F39BB2BB613AE0FFF74DFCF860D9
:102258007B685B685A08FB681A447B685B68B2FB5A
:10226800F3F39BB2BB612BE07B685B685B0803F50B
:10227800F40303F590537A685268B3FBF2F39BB208
:10228800BB611DE0FFF798FBF8607B685B685A0844
:10229800FB681A447B685B68B2FBF3F39BB2BB61D3
:1022A8000EE07B685B685B0803F500427B685B684F
:1022B800B2FBF3F39BB2BB6102E00123FB7500BFE5
:1022C800BB690F2B12D9BB69B3F5803F0ED27B686F
:1022D8001B68BA69DA600BE0F369FFEF0038014068
:1022E8000010024000440040004800400123FB75F4
:1022F8007B6800221A667B6800225A66FB7D1846B6
:102308002037BD4680BD00BF80B483B000AF786081
:102318007B685B6A03F00103002B0AD07B681B68AB
:102328007A681268526822F400317A68926A0A431D
:102338005A607B685B6A03F00203002B0AD07B6853
:102348001B687A681268526822F480317A68D26A07
:102358000A435A607B685B6A03F00403002B0AD0C7
:102368007B681B687A681268526822F480217A6850
:10237800126B0A435A607B685B6A03F00803002B00
:102388000AD07B681B687A681268526822F4004198
:102398007A68526B0A435A607B685B6A03F01003E1
:1023A800002B0AD07B681B687A681268926822F44E
:1023B80080517A68926B0A439A607B685B6A03F083
:1023C8002003002B0AD07B681B687A681268926821
:1023D80022F400517A68D26B0A439A607B685B6A80
:1023E80003F04003002B1AD07B681B687A681268D8
:1023F800526822F480117A68126C0A435A607B682A
:102408001B6CB3F5801F0AD17B681B687A68126859
:10241800526822F4C0017A68526C0A435A607B6899
:102428005B6A03F08003002B0AD07B681B687A681C
:102438001268526822F400217A68926C0A435A6042
:1024480000BF0C37BD465DF8047B704780B586B089
:1024580002AF78607B680022DA67FDF70BFFF8604F
:102468007B681B681B6803F00803082B0ED16FF00C
:102478007E430093FB6800224FF40011786800F057
:102488002AF80346002B01D0032320E07B681B6851
:102498001B6803F00403042B0ED16FF07E430093F6
:1024A800FB6800224FF48001786800F014F80346B6
:1024B800002B01D003230AE07B6820225A677B683F
:1024C80020229A677B68002283F870200023184630
:1024D8001037BD4680BD80B584B000AFF860B960E4
:1024E8003B601346FB715DE0BB69B3F1FF3F59D018
:1024F800FDF7C0FE02463B68D21ABB699A4202D871
:10250800BB69002B1BD1FB681B68FA68126812684C
:1025180022F4D0721A60FB681B68FA681268926825
:1025280022F001029A60FB6820225A67FB68202289
:102538009A67FB68002283F87020032342E0FB6857
:102548001B681B6803F00403002B2BD0FB681B6877
:10255800DB6903F40063B3F5006F23D1FB681B68E4
:102568004FF400621A62FB681B68FA681268126806
:1025780022F4D0721A60FB681B68FA6812689268C5
:1025880022F001029A60FB6820225A67FB68202229
:102598009A67FB682022DA67FB68002283F87020BC
:1025A80003230FE0FB681B68DA69BB681A40BB6845
:1025B8009A420CBF01230023DBB21A46FB799A42E8
:1025C80092D0002318461037BD4680BD80B483B032
:1025D80000AF78607B681B687A681268126822F41A
:1025E80090721A607B681B687A681268926822F099
:1025F80001029A607B6820229A677B6800221A662B
:1026080000BF0C37BD465DF8047B704780B584B0C9
:1026180000AF78607B685B6AFB60FB680022A3F808
:102628005A20FB680022A3F85220F868FFF7E0FC64
:1026380000BF1037BD4680BD80B582B000AF78605E
:102648007B681B687A681268126822F040021A6078
:102658007B6820225A677B6800225A667868FFF7F1
:10266800BDFC00BF0837BD4680BD80B586B000AF51
:10267800F860B9607A603B60FB68002B01D10123E8
:1026880056E0FB685B6F002B06D1FB68002283F8DD
:102698007020F86800F056FCFB6824225A67FB6833
:1026A8001B68FA681268126822F001021A60F8685A
:1026B800FFF7A8FC0346012B01D1012338E0FB6892
:1026C8005B6A002B02D0F868FFF71EFEFB681B68E8
:1026D800FA681268926842F480429A60FB681B6844
:1026E800FA681268926822F40041BA680A439A604C
:1026F8007B685B057B613B681B047A6913437B61DC
:10270800FB681A68FB681B681B6823F07F7323F457
:10271800403379690B431360FB681B68FA681268D9
:10272800126842F001021A60F868FFF78FFE03464C
:1027380018461837BD4680BD80B483B000AF7860B6
:1027480000BF0C37BD465DF8047B704780B500AF0D
:102758000E4A0E4B5B6923F0040353610A20FDF710
:1027680095FD0A4A094B5B6943F0040353610A204B
:10277800FDF78CFD054A054B5B6923F004035361A3
:102788002D20FDF783FD00BF80BD00BF0008004875
:1027980080B582B000AF03463960FB713B68012BFE
:1027A80003D1094B01225A6105E0074A064B5B69D0
:1027B80023F001035361054AFB795361FFF7C6FF14
:1027C80000BF0837BD4680BD000800480004004827
:1027D80080B582B000AF03463960FB713B68012BBE
:1027E80012D1FB7963F07F03DAB2124B1A70124AE6
:1027F800114B5B6923F001035361104B0D4A1278AA
:102808005A61FFF7A3FF11E0FB7963F03F03DAB2E7
:10281800084B1A70084A084B5B6923F0010353619F
:10282800064B044A12785A61FFF790FF00BF083739
:10283800BD4680BDFC000020000800480004004898
:1028480080B500AF00210120FFF7A2FF0121A820D9
:10285800FFF79EFF01217020FFF79AFF01216F20EB
:10286800FFF796FF0121B420FFF792FF01212020F6
:10287800FFF78EFF01214E20FFF78AFF01213A2042
:10288800FFF786FF01215F20FFF782FF0221012069
:10289800FFF79EFF01213120FFF77AFF0221032075
:1028A800FFF796FF01213220FFF772FF0221052072
:1028B800FFF78EFF01213320FFF76AFF00BF80BDBD
:1028C80080B500AF00210120FFF762FF0121012040
:1028D800FFF77EFF01217420FFF75AFF0121BD2079
:1028E800FFF756FF01213D20FFF752FF012130205D
:1028F800FFF74EFF01213020FFF74AFF012130206A
:10290800FFF746FF02210120FFF762FF0121742033
:10291800FFF73EFF01217920FFF73AFF01213D2013
:10292800FFF736FF01213020FFF732FF0121302069
:10293800FFF72EFF01213020FFF72AFF00BF80BDDF
:1029480080B500AF194A194B5B6923F0FF03536147
:102958006420FDF79BFC164A154B5B6923F00103C5
:102968005361134A124B5B6923F002035361104A07
:102978000F4B5B6923F004035361FFF7E7FE002167
:102988003C20FFF705FF00213C20FFF701FF002155
:102998000E20FFF7FDFE00210120FFF7F9FE0021C0
:1029A8000620FFF7F5FE00BF80BD00BF0004004809
:1029B8000008004880B500AF52E04FF480612B4812
:1029C800FDF746FF0346002B1BD14FF44870FDF777
:1029D8005DFC274B1B7801211846FFF7F9FE4FF4E1
:1029E800FA70FDF753FC224B1B78062B06D8204BB8
:1029F8001B780133DAB21E4B1A7002E01C4B00221E
:102A08001A704FF400611948FDF722FF0346002BA6
:102A18001BD14FF44870FDF739FC154B1B78022188
:102A28001846FFF7D5FE4FF4FA70FDF72FFC104B50
:102A38001B78062B06D80E4B1B780133DAB20C4BE9
:102A48001A7002E00A4B00221A704FF4005107482E
:102A5800FDF7FEFE0346002B02D1064B00221A604A
:102A6800044B1B68012BA8D000BF80BD000800489C
:102A7800B90000200401002080B584B000AF012314
:102A8800FB600023BB6000237B6076E0464B1B782D
:102A9800862B67D14FF480614448FDF7D9FE034681
:102AA800002B5FD14FF47A70FDF7F0FBFB68092B20
:102AB80012DCFB685BB243F030035BB2FB70FB785F
:102AC80001211846FFF764FEFB680133FB60012112
:102AD8000620FFF77DFE45E00123FB600121302041
:102AE800FFF756FEBB680133BB60BB68092B13DCDC
:102AF800BB685BB243F030035BB2BB7001210520B9
:102B0800FFF766FEBB7801211846FFF741FE012159
:102B18000620FFF75DFE25E00123BB6001210520AB
:102B2800FFF756FE01213020FFF732FE7B680133A4
:102B38007B607B68092B13DC7B685BB243F0300356
:102B48005BB27B7001210420FFF742FE7B780121F4
:102B58001846FFF71DFE01210620FFF739FE01E0A8
:102B680000237B604FF400511048FDF771FE0346C7
:102B7800002B02D10E4B00221A600D4B1B68012B53
:102B880084D07B68642202FB03F1BA6813469B0079
:102B980013445B00CA18FB681344064A136000BF5D
:102BA8001037BD4680BD00BFFC000020000800486B
:102BB800B40000202800002080B500AFFDF700FB1E
:102BC80000F03AF800F0E2F800F078F800F0ACF81D
:102BD800FFF7B6FEFFF734FE41F28830FDF756FBEB
:102BE800FFF76EFE4FF400511048FDF731FE034623
:102BF800002B0AD1C820FDF749FB0D4B01221A60B2
:102C0800FFF7D8FEC820FDF741FB4FF48051074875
:102C1800FDF71EFE0346002BE4D1064B01221A6085
:102C2800C820FDF733FBFFF727FFDBE70008004864
:102C380004010020B400002080B590B000AF07F177
:102C4800180328220021184600F064FA3B1D0022D0
:102C58001A605A609A60DA601A610223BB61012324
:102C6800BB621023FB6202237B630023BB634FF428
:102C78006013FB6307F118031846FDF719FE0346B6
:102C8800002B01D000F012F90F237B600223BB60F8
:102C98000023FB604FF480633B6100237B613B1D95
:102CA80002211846FEF70CFD0346002B01D000F068
:102CB800FDF800BF4037BD4680BD000080B584B038
:102CC80000AF3B1D00221A605A609A60144B154AE7
:102CD8001A60134B00225A60114B00229A60104B65
:102CE8004FF6FF72DA600E4B00229A610C48FEF72D
:102CF8001DFF0346002B01D000F0D8F800237B60AD
:102D08000023FB603B1D19460548FEF7B3FF034649
:102D1800002B01D000F0CAF800BF1037BD4680BDB7
:102D2800BC0000200010004080B500AF154B164ACB
:102D38001A60144B4FF416525A60124B00229A60D4
:102D4800104B0022DA600F4B00221A610D4B0C2247
:102D58005A610C4B00229A610A4B0022DA61094B36
:102D680000221A62074B00225A6200230022002127
:102D78000448FFF77AFC0346002B01D000F096F8D0
:102D880000BF80BD300000200048004080B588B0FA
:102D980000AF07F10C0300221A605A609A60DA60EB
:102DA8001A613E4A3D4B5B6943F4002353613B4B38
:102DB8005B6903F40023BB60BB68384A374B5B6927
:102DC80043F400335361354B5B6903F400337B6094
:102DD8007B68324A314B5B6943F4802353612F4B44
:102DE8005B6903F480233B603B68002207212C4881
:102DF800FDF746FD002220214FF09040FDF740FDF1
:102E08000022FF212748FDF73BFD4FF40053FB60EC
:102E1800254B3B6100237B6107F10C0319462048D1
:102E2800FDF7A4FB0723FB6001233B6100237B61C3
:102E38000023BB6107F10C0319461948FDF796FBFF
:102E48002023FB6001233B6100237B610023BB61DE
:102E580007F10C0319464FF09040FDF787FBFF235D
:102E6800FB6001233B6100237B610023BB6107F109
:102E78000C0319460B48FDF779FB4FF4E053FB6050
:102E880000233B6100237B6107F10C0319460448CA
:102E9800FDF76CFB00BF2037BD4680BD0010024027
:102EA80000080048000400480000211080B400AF6A
:102EB80000BFBD465DF8047B7047000080B582B056
:102EC80000AF0F4A0E4B9B6943F0010393610C4B13
:102ED8009B6903F001037B607B68094A084BDB6947
:102EE80043F08053D361064BDB6903F080533B60AA
:102EF8003B680720FDF7BAFA00BF0837BD4680BD1A
:102F08000010024080B485B000AF78607B681B6811
:102F18000A4A93420BD10A4A094BDB6943F0100372
:102F2800D361074BDB6903F01003FB60FB6800BF4C
:102F38001437BD465DF8047B704700BF00100040A1
:102F48000010024080B58AB000AF786007F1140322
:102F580000221A605A609A60DA601A617B681B68FE
:102F68001B4A934230D11B4A1A4BDB6943F4802336
:102F7800D361184BDB6903F480233B613B69154A35
:102F8800144B5B6943F480235361124B5B6903F470
:102F98008023FB60FB684FF498437B610223BB618D
:102FA8000023FB6103233B6207237B6207F11403C1
:102FB80019460948FDF7DAFA002200212720FDF713
:102FC80060FA2720FDF779FA00BF2837BD4680BD93
:102FD80000480040001002400004004880B400AFE0
:102FE80000BFBD465DF8047B704780B400AFFEE7C4
:102FF80080B400AFFEE780B400AFFEE780B400AF56
:10300800FEE780B400AF00BFBD465DF8047B7047A3
:1030180080B400AF00BFBD465DF8047B704780B444
:1030280000AF00BFBD465DF8047B704780B500AFB8
:10303800FDF70CF900BF80BD80B500AF0248FEF770
:1030480087FE00BF80BD00BF3000002080B400AF05
:10305800084A084BD3F8883043F47003C2F8883024
:10306800044B4FF000629A6000BFBD465DF8047BD8
:10307800704700BF00ED00E0DFF834D0002103E026
:103088000C4B5B58435004310B480C4B42189A4286
:10309800F6D30B4A02E0002342F8043B094B9A425C
:1030A800F9D3FFF7D3FF00F011F8FFF785FDFEE72E
:1030B8000030002084310008000000200C000020AF
:1030C8000C00002008010020FEE7000070B50D4E3E
:1030D8000D4CA41BA4100025A54209D10B4E0C4C85
:1030E80000F020F8A41BA4100025A54205D170BD4E
:1030F80056F8253098470135EEE756F825309847B9
:103108000135F2E77C3100087C3100087C31000889
:103118008031000802440346934200D1704703F807
:10312800011BF9E7F8B500BFF8BC08BC9E4670471C
:0C313800F8B500BFF8BC08BC9E4670470C
:1031440002030405060708090A0B0C0D0E0F1010E4
:103154000102030405060708090A0B0C0D0E0F10E3
:103164000000000000000000010203040607080933
:08317400000000000102030449
:04317C00AD01000899
:0431800089010008B9
:0C318400100000000100000000127A00A2
:04000005080030813E
:00000001FF
